:100000004245363530320048454C4C4F204C434435
:1000100000A9FF8D0260A9E08D036060A930205225
:1000200080207880A930205280207880A93020520A
:1000300080207880A938205280207880A90D205215
:1000400080207880A901205280207880A906205243
:1000500080608D0060A9808D0160A9008D0160A97C
:10006000808D0160608D0060A9A08D0160A9208D48
:100070000160A9A48D016060EA60201180201C80CD
:10008000A200BD0080C900F007206580E84C828096
:04009000EA4C908026
:067FFA007A807A807A8093
:00000001FF
